{
  "txid": "3bb3a2d200b5d281cb1c23602d5deedcd761400977a9b8d4381dc48377a473d6",
  "hash": "3bb3a2d200b5d281cb1c23602d5deedcd761400977a9b8d4381dc48377a473d6",
  "version": 2,
  "size": 366,
  "vsize": 366,
  "locktime": 0,
  "vin": [
    {
      "txid": "54c7e6f68c445eb80c3fb7c17691e4b45bbc0e08d34e4c6dcdf3f6d119ce932c",
      "vout": 0,
      "scriptSig": {
        "asm": "3044022004a7a20cf3dbd586db129ba172f1afae0cde5be99adf2bf6530d8251cd8642be02204a9829ae5644b681249736235d265c22e8e02176f24857d31a2cf6b4cc0d2d39[ALL] 03becdde7919f90c7b7313f5acff26cded2b37807ac90714b4e1b876e699b1ede7",
        "hex": "473044022004a7a20cf3dbd586db129ba172f1afae0cde5be99adf2bf6530d8251cd8642be02204a9829ae5644b681249736235d265c22e8e02176f24857d31a2cf6b4cc0d2d39012103becdde7919f90c7b7313f5acff26cded2b37807ac90714b4e1b876e699b1ede7"
      },
      "sequence": 4294967295,
      "value": 3095.58375282,
      "valueSat": 309558375282,
      "address": "RM5u7Qbe4sLdUnrgKQLBKvreCMRDb5FySU"
    }
  ],
  "vout": [
    {
      "value": 3095.57885282,
      "n": 0,
      "scriptPubKey": {
        "asm": "OP_DUP OP_HASH160 817ec52987fc1d4f963ecdf613c7e5df30c23018 OP_EQUALVERIFY OP_CHECKSIG",
        "hex": "76a914817ec52987fc1d4f963ecdf613c7e5df30c2301888ac",
        "reqSigs": 1,
        "type": "pubkeyhash",
        "addresses": [
          "RM5u7Qbe4sLdUnrgKQLBKvreCMRDb5FySU"
        ]
      },
      "valueSat": 309557885282
    },
    {
      "value": 0.0003,
      "n": 1,
      "scriptPubKey": {
        "asm": "OP_DUP OP_HASH160 b1107a843aee297dbbc9a50e61a01b37edef38e7 OP_EQUALVERIFY OP_CHECKSIG",
        "hex": "76a914b1107a843aee297dbbc9a50e61a01b37edef38e788ac",
        "reqSigs": 1,
        "type": "pubkeyhash",
        "addresses": [
          "RRRRRRRRRRRRRRRRRRRRRRRRRRRRTvmrjL"
        ]
      },
      "valueSat": 30000
    },
    {
      "value": 0.0003,
      "n": 2,
      "scriptPubKey": {
        "asm": "OP_DUP OP_HASH160 12691d06f596f77634b950c00c8a40764c78a0bc OP_EQUALVERIFY OP_CHECKSIG",
        "hex": "76a91412691d06f596f77634b950c00c8a40764c78a0bc88ac",
        "reqSigs": 1,
        "type": "pubkeyhash",
        "addresses": [
          "RAxYANiSxVARAoFAKiSzzzzzzzzzVzxiKg"
        ]
      },
      "valueSat": 30000
    },
    {
      "value": 0.0003,
      "n": 3,
      "scriptPubKey": {
        "asm": "OP_DUP OP_HASH160 1267f9cc844444e977c3efe9fad3d65384b20b32 OP_EQUALVERIFY OP_CHECKSIG",
        "hex": "76a9141267f9cc844444e977c3efe9fad3d65384b20b3288ac",
        "reqSigs": 1,
        "type": "pubkeyhash",
        "addresses": [
          "RAxWoLFGANGxMUNCHAUzzzzzzzzzc8SiAb"
        ]
      },
      "valueSat": 30000
    },
    {
      "value": 0.0003,
      "n": 4,
      "scriptPubKey": {
        "asm": "OP_DUP OP_HASH160 285640d71a470f78c54856acc1d7930ee72e9a32 OP_EQUALVERIFY OP_CHECKSIG",
        "hex": "76a914285640d71a470f78c54856acc1d7930ee72e9a3288ac",
        "reqSigs": 1,
        "type": "pubkeyhash",
        "addresses": [
          "RCxUSAxBAiLiNGxiTSELFxoUTzzzXmvj4N"
        ]
      },
      "valueSat": 30000
    },
    {
      "value": 0,
      "n": 5,
      "scriptPubKey": {
        "asm": "OP_RETURN 68747470733a2f2f796f7574752e62652f5a334a3438533549494263",
        "hex": "6a1c68747470733a2f2f796f7574752e62652f5a334a3438533549494263",
        "type": "nulldata"
      },
      "valueSat": 0
    }
  ],
  "hex": "02000000012c93ce19d1f6f3cd6d4c4ed3080ebc5bb4e49176c1b73f0cb85e448cf6e6c754000000006a473044022004a7a20cf3dbd586db129ba172f1afae0cde5be99adf2bf6530d8251cd8642be02204a9829ae5644b681249736235d265c22e8e02176f24857d31a2cf6b4cc0d2d39012103becdde7919f90c7b7313f5acff26cded2b37807ac90714b4e1b876e699b1ede7ffffffff0662791613480000001976a914817ec52987fc1d4f963ecdf613c7e5df30c2301888ac30750000000000001976a914b1107a843aee297dbbc9a50e61a01b37edef38e788ac30750000000000001976a91412691d06f596f77634b950c00c8a40764c78a0bc88ac30750000000000001976a9141267f9cc844444e977c3efe9fad3d65384b20b3288ac30750000000000001976a914285640d71a470f78c54856acc1d7930ee72e9a3288ac00000000000000001e6a1c68747470733a2f2f796f7574752e62652f5a334a343853354949426300000000",
  "blockhash": "0000000000016f604135865d33497dc7a5443b74496e1462a06ef4f45c0df745",
  "height": 4346383,
  "confirmations": 10,
  "time": 1777567096,
  "blocktime": 1777567096
}
