{"txid":"41b61850b594bcf961e7d79e3c15ff40e693df3ecf5b475a7b2179f2ee1f3b6a","hash":"41b61850b594bcf961e7d79e3c15ff40e693df3ecf5b475a7b2179f2ee1f3b6a","version":2,"size":270,"vsize":270,"locktime":0,"vin":[{"txid":"1e09f5ed9990f9b14b7ad4a89dadc56d83dec42b884ec21b302b8a8d2d2d1dfe","vout":0,"scriptSig":{"asm":"3044022011c9cc2942a918a2332b8a473f67c5ea9ff07233f95c238402d62eacdae10163022056f75495191a13340892d710ad2eb15e5f6446d7fc1118540aee581c98ead637[ALL] 03becdde7919f90c7b7313f5acff26cded2b37807ac90714b4e1b876e699b1ede7","hex":"473044022011c9cc2942a918a2332b8a473f67c5ea9ff07233f95c238402d62eacdae10163022056f75495191a13340892d710ad2eb15e5f6446d7fc1118540aee581c98ead637012103becdde7919f90c7b7313f5acff26cded2b37807ac90714b4e1b876e699b1ede7"},"sequence":4294967295,"value":3095.59809682,"valueSat":309559809682,"address":"RM5u7Qbe4sLdUnrgKQLBKvreCMRDb5FySU"}],"vout":[{"value":3095.59519682,"n":0,"scriptPubKey":{"asm":"OP_DUP OP_HASH160 817ec52987fc1d4f963ecdf613c7e5df30c23018 OP_EQUALVERIFY OP_CHECKSIG","hex":"76a914817ec52987fc1d4f963ecdf613c7e5df30c2301888ac","reqSigs":1,"type":"pubkeyhash","addresses":["RM5u7Qbe4sLdUnrgKQLBKvreCMRDb5FySU"]},"spentTxId":"2d09b13fab3e06348e679accea681c3830711035af8c58de154d8d5b133a2f6c","spentIndex":0,"spentHeight":4345642,"valueSat":309559519682},{"value":0,"n":1,"scriptPubKey":{"asm":"OP_RETURN 68747470733a2f2f697066732e696f2f697066732f516d526155623450436d764d52566165615a4b7344595436726b4c5551736638736f394870415975536377574d452f","hex":"6a4468747470733a2f2f697066732e696f2f697066732f516d526155623450436d764d52566165615a4b7344595436726b4c5551736638736f394870415975536377574d452f","type":"nulldata"},"valueSat":0}],"hex":"0200000001fe1d2d2d8d8a2b301bc24e882bc4de836dc5ad9da8d47a4bb1f99099edf5091e000000006a473044022011c9cc2942a918a2332b8a473f67c5ea9ff07233f95c238402d62eacdae10163022056f75495191a13340892d710ad2eb15e5f6446d7fc1118540aee581c98ead637012103becdde7919f90c7b7313f5acff26cded2b37807ac90714b4e1b876e699b1ede7ffffffff02c2692f13480000001976a914817ec52987fc1d4f963ecdf613c7e5df30c2301888ac0000000000000000466a4468747470733a2f2f697066732e696f2f697066732f516d526155623450436d764d52566165615a4b7344595436726b4c5551736638736f394870415975536377574d452f00000000","blockhash":"00000000000134a50da57679c3c0ed8cc4f30d7ca713c53f370c11ab213cfb16","height":4343843,"confirmations":2548,"time":1777412660,"blocktime":1777412660}
